{
  "_format": "hh-sol-artifact-1",
  "contractName": "meddata",
  "sourceName": "contracts/meddata.sol",
  "abi": [
    {
      "inputs": [],
      "stateMutability": "payable",
      "type": "constructor"
    },
    {
      "inputs": [
        {
          "internalType": "string",
          "name": "_title",
          "type": "string"
        },
        {
          "internalType": "string",
          "name": "_description",
          "type": "string"
        },
        {
          "internalType": "string",
          "name": "_imageURI",
          "type": "string"
        }
      ],
      "name": "NewRrecord",
      "outputs": [],
      "stateMutability": "payable",
      "type": "function"
    },
    {
      "inputs": [],
      "name": "firstOwner",
      "outputs": [],
      "stateMutability": "nonpayable",
      "type": "function"
    },
    {
      "inputs": [],
      "name": "getAllRecords",
      "outputs": [
        {
          "components": [
            {
              "internalType": "uint256",
              "name": "id",
              "type": "uint256"
            },
            {
              "internalType": "string",
              "name": "title",
              "type": "string"
            },
            {
              "internalType": "string",
              "name": "description",
              "type": "string"
            },
            {
              "internalType": "bool",
              "name": "islisted",
              "type": "bool"
            },
            {
              "internalType": "string",
              "name": "imageURI",
              "type": "string"
            },
            {
              "internalType": "address[]",
              "name": "owners",
              "type": "address[]"
            },
            {
              "internalType": "uint256",
              "name": "timestamp",
              "type": "uint256"
            }
          ],
          "internalType": "struct meddata.Record[]",
          "name": "",
          "type": "tuple[]"
        }
      ],
      "stateMutability": "view",
      "type": "function"
    },
    {
      "inputs": [
        {
          "internalType": "address",
          "name": "_newOwner",
          "type": "address"
        }
      ],
      "name": "newOwner",
      "outputs": [],
      "stateMutability": "payable",
      "type": "function"
    },
    {
      "inputs": [
        {
          "internalType": "uint256",
          "name": "",
          "type": "uint256"
        }
      ],
      "name": "records",
      "outputs": [
        {
          "internalType": "uint256",
          "name": "id",
          "type": "uint256"
        },
        {
          "internalType": "string",
          "name": "title",
          "type": "string"
        },
        {
          "internalType": "string",
          "name": "description",
          "type": "string"
        },
        {
          "internalType": "bool",
          "name": "islisted",
          "type": "bool"
        },
        {
          "internalType": "string",
          "name": "imageURI",
          "type": "string"
        },
        {
          "internalType": "uint256",
          "name": "timestamp",
          "type": "uint256"
        }
      ],
      "stateMutability": "view",
      "type": "function"
    },
    {
      "inputs": [
        {
          "internalType": "uint256",
          "name": "",
          "type": "uint256"
        }
      ],
      "name": "temp",
      "outputs": [
        {
          "internalType": "address",
          "name": "",
          "type": "address"
        }
      ],
      "stateMutability": "view",
      "type": "function"
    },
    {
      "inputs": [],
      "name": "totalRecord",
      "outputs": [
        {
          "internalType": "uint256",
          "name": "",
          "type": "uint256"
        }
      ],
      "stateMutability": "view",
      "type": "function"
    }
  ],
  "bytecode": "0x60806040526118ae806100136000396000f3fe6080604052600436106100705760003560e01c80636c3755ad1161004e5780636c3755ad146100ea5780638595245414610127578063a7f9fe7214610143578063ff35700c1461016e57610070565b80631cda164f1461007557806334461067146100915780636bc28781146100d3575b600080fd5b61008f600480360381019061008a9190610ea0565b610199565b005b34801561009d57600080fd5b506100b860048036038101906100b39190610f7d565b61033b565b6040516100ca96959493929190611053565b60405180910390f35b3480156100df57600080fd5b506100e861052c565b005b3480156100f657600080fd5b50610111600480360381019061010c9190610f7d565b6105da565b60405161011e919061110a565b60405180910390f35b610141600480360381019061013c9190611151565b610619565b005b34801561014f57600080fd5b506101586107ee565b6040516101659190611417565b60405180910390f35b34801561017a57600080fd5b50610183610c5a565b6040516101909190611439565b60405180910390f35b6101a161052c565b60016040518060e00160405280428152602001858152602001848152602001600115158152602001838152602001600380548060200260200160405190810160405280929190818152602001828054801561025157602002820191906000526020600020905b8160009054906101000a900473ffffffffffffffffffffffffffffffffffffffff1673ffffffffffffffffffffffffffffffffffffffff1681526020019060010190808311610207575b505050505081526020014281525090806001815401808255809150506001900390600052602060002090600702016000909190919091506000820151816000015560208201518160010190816102a79190611660565b5060408201518160020190816102bd9190611660565b5060608201518160030160006101000a81548160ff02191690831515021790555060808201518160040190816102f39190611660565b5060a0820151816005019080519060200190610310929190610c60565b5060c082015181600601555050600160008082825461032f9190611761565b92505081905550505050565b6001818154811061034b57600080fd5b906000526020600020906007020160009150905080600001549080600101805461037490611483565b80601f01602080910402602001604051908101604052809291908181526020018280546103a090611483565b80156103ed5780601f106103c2576101008083540402835291602001916103ed565b820191906000526020600020905b8154815290600101906020018083116103d057829003601f168201915b50505050509080600201805461040290611483565b80601f016020809104026020016040519081016040528092919081815260200182805461042e90611483565b801561047b5780601f106104505761010080835404028352916020019161047b565b820191906000526020600020905b81548152906001019060200180831161045e57829003601f168201915b5050505050908060030160009054906101000a900460ff16908060040180546104a390611483565b80601f01602080910402602001604051908101604052809291908181526020018280546104cf90611483565b801561051c5780601f106104f15761010080835404028352916020019161051c565b820191906000526020600020905b8154815290600101906020018083116104ff57829003601f168201915b5050505050908060060154905086565b6003339080600181540180825580915050600190039060005260206000200160009091909190916101000a81548173ffffffffffffffffffffffffffffffffffffffff021916908373ffffffffffffffffffffffffffffffffffffffff160217905550600180549050600260003373ffffffffffffffffffffffffffffffffffffffff1673ffffffffffffffffffffffffffffffffffffffff16815260200190815260200160002081905550565b600381815481106105ea57600080fd5b906000526020600020016000915054906101000a900473ffffffffffffffffffffffffffffffffffffffff1681565b600060018054905011610661576040517f08c379a0000000000000000000000000000000000000000000000000000000008152600401610658906117e1565b60405180910390fd5b60005b6001805490508110156107ea5760005b6001828154811061068857610687611801565b5b9060005260206000209060070201600501805490508110156107d6573373ffffffffffffffffffffffffffffffffffffffff16600183815481106106cf576106ce611801565b5b906000526020600020906007020160050182815481106106f2576106f1611801565b5b9060005260206000200160009054906101000a900473ffffffffffffffffffffffffffffffffffffffff1673ffffffffffffffffffffffffffffffffffffffff16036107c3576001828154811061074c5761074b611801565b5b9060005260206000209060070201600501839080600181540180825580915050600190039060005260206000200160009091909190916101000a81548173ffffffffffffffffffffffffffffffffffffffff021916908373ffffffffffffffffffffffffffffffffffffffff1602179055506107d6565b80806107ce90611830565b915050610674565b5080806107e290611830565b915050610664565b5050565b6060600060018054905011610838576040517f08c379a000000000000000000000000000000000000000000000000000000000815260040161082f906117e1565b60405180910390fd5b600060018054905067ffffffffffffffff81111561085957610858610d75565b5b60405190808252806020026020018201604052801561089257816020015b61087f610cea565b8152602001906001900390816108775790505b50905060005b600180549050811015610c525760005b600182815481106108bc576108bb611801565b5b906000526020600020906007020160050180549050811015610c3e573373ffffffffffffffffffffffffffffffffffffffff166001838154811061090357610902611801565b5b9060005260206000209060070201600501828154811061092657610925611801565b5b9060005260206000200160009054906101000a900473ffffffffffffffffffffffffffffffffffffffff1673ffffffffffffffffffffffffffffffffffffffff1603610c2b57600182815481106109805761097f611801565b5b90600052602060002090600702016040518060e0016040529081600082015481526020016001820180546109b390611483565b80601f01602080910402602001604051908101604052809291908181526020018280546109df90611483565b8015610a2c5780601f10610a0157610100808354040283529160200191610a2c565b820191906000526020600020905b815481529060010190602001808311610a0f57829003601f168201915b50505050508152602001600282018054610a4590611483565b80601f0160208091040260200160405190810160405280929190818152602001828054610a7190611483565b8015610abe5780601f10610a9357610100808354040283529160200191610abe565b820191906000526020600020905b815481529060010190602001808311610aa157829003601f168201915b505050505081526020016003820160009054906101000a900460ff16151515158152602001600482018054610af290611483565b80601f0160208091040260200160405190810160405280929190818152602001828054610b1e90611483565b8015610b6b5780601f10610b4057610100808354040283529160200191610b6b565b820191906000526020600020905b815481529060010190602001808311610b4e57829003601f168201915b5050505050815260200160058201805480602002602001604051908101604052809291908181526020018280548015610bf957602002820191906000526020600020905b8160009054906101000a900473ffffffffffffffffffffffffffffffffffffffff1673ffffffffffffffffffffffffffffffffffffffff1681526020019060010190808311610baf575b50505050508152602001600682015481525050838381518110610c1f57610c1e611801565b5b60200260200101819052505b8080610c3690611830565b9150506108a8565b508080610c4a90611830565b915050610898565b508091505090565b60005481565b828054828255906000526020600020908101928215610cd9579160200282015b82811115610cd85782518260006101000a81548173ffffffffffffffffffffffffffffffffffffffff021916908373ffffffffffffffffffffffffffffffffffffffff16021790555091602001919060010190610c80565b5b509050610ce69190610d29565b5090565b6040518060e001604052806000815260200160608152602001606081526020016000151581526020016060815260200160608152602001600081525090565b5b80821115610d42576000816000905550600101610d2a565b5090565b6000604051905090565b600080fd5b600080fd5b600080fd5b600080fd5b6000601f19601f8301169050919050565b7f4e487b7100000000000000000000000000000000000000000000000000000000600052604160045260246000fd5b610dad82610d64565b810181811067ffffffffffffffff82111715610dcc57610dcb610d75565b5b80604052505050565b6000610ddf610d46565b9050610deb8282610da4565b919050565b600067ffffffffffffffff821115610e0b57610e0a610d75565b5b610e1482610d64565b9050602081019050919050565b82818337600083830152505050565b6000610e43610e3e84610df0565b610dd5565b905082815260208101848484011115610e5f57610e5e610d5f565b5b610e6a848285610e21565b509392505050565b600082601f830112610e8757610e86610d5a565b5b8135610e97848260208601610e30565b91505092915050565b600080600060608486031215610eb957610eb8610d50565b5b600084013567ffffffffffffffff811115610ed757610ed6610d55565b5b610ee386828701610e72565b935050602084013567ffffffffffffffff811115610f0457610f03610d55565b5b610f1086828701610e72565b925050604084013567ffffffffffffffff811115610f3157610f30610d55565b5b610f3d86828701610e72565b9150509250925092565b6000819050919050565b610f5a81610f47565b8114610f6557600080fd5b50565b600081359050610f7781610f51565b92915050565b600060208284031215610f9357610f92610d50565b5b6000610fa184828501610f68565b91505092915050565b610fb381610f47565b82525050565b600081519050919050565b600082825260208201905092915050565b60005b83811015610ff3578082015181840152602081019050610fd8565b60008484015250505050565b600061100a82610fb9565b6110148185610fc4565b9350611024818560208601610fd5565b61102d81610d64565b840191505092915050565b60008115159050919050565b61104d81611038565b82525050565b600060c0820190506110686000830189610faa565b818103602083015261107a8188610fff565b9050818103604083015261108e8187610fff565b905061109d6060830186611044565b81810360808301526110af8185610fff565b90506110be60a0830184610faa565b979650505050505050565b600073ffffffffffffffffffffffffffffffffffffffff82169050919050565b60006110f4826110c9565b9050919050565b611104816110e9565b82525050565b600060208201905061111f60008301846110fb565b92915050565b61112e816110e9565b811461113957600080fd5b50565b60008135905061114b81611125565b92915050565b60006020828403121561116757611166610d50565b5b60006111758482850161113c565b91505092915050565b600081519050919050565b600082825260208201905092915050565b6000819050602082019050919050565b6111b381610f47565b82525050565b600082825260208201905092915050565b60006111d582610fb9565b6111df81856111b9565b93506111ef818560208601610fd5565b6111f881610d64565b840191505092915050565b61120c81611038565b82525050565b600081519050919050565b600082825260208201905092915050565b6000819050602082019050919050565b611247816110e9565b82525050565b6000611259838361123e565b60208301905092915050565b6000602082019050919050565b600061127d82611212565b611287818561121d565b93506112928361122e565b8060005b838110156112c35781516112aa888261124d565b97506112b583611265565b925050600181019050611296565b5085935050505092915050565b600060e0830160008301516112e860008601826111aa565b506020830151848203602086015261130082826111ca565b9150506040830151848203604086015261131a82826111ca565b915050606083015161132f6060860182611203565b506080830151848203608086015261134782826111ca565b91505060a083015184820360a08601526113618282611272565b91505060c083015161137660c08601826111aa565b508091505092915050565b600061138d83836112d0565b905092915050565b6000602082019050919050565b60006113ad8261117e565b6113b78185611189565b9350836020820285016113c98561119a565b8060005b8581101561140557848403895281516113e68582611381565b94506113f183611395565b925060208a019950506001810190506113cd565b50829750879550505050505092915050565b6000602082019050818103600083015261143181846113a2565b905092915050565b600060208201905061144e6000830184610faa565b92915050565b7f4e487b7100000000000000000000000000000000000000000000000000000000600052602260045260246000fd5b6000600282049050600182168061149b57607f821691505b6020821081036114ae576114ad611454565b5b50919050565b60008190508160005260206000209050919050565b60006020601f8301049050919050565b600082821b905092915050565b6000600883026115167fffffffffffffffffffffffffffffffffffffffffffffffffffffffffffffffff826114d9565b61152086836114d9565b95508019841693508086168417925050509392505050565b6000819050919050565b600061155d61155861155384610f47565b611538565b610f47565b9050919050565b6000819050919050565b61157783611542565b61158b61158382611564565b8484546114e6565b825550505050565b600090565b6115a0611593565b6115ab81848461156e565b505050565b5b818110156115cf576115c4600082611598565b6001810190506115b1565b5050565b601f821115611614576115e5816114b4565b6115ee846114c9565b810160208510156115fd578190505b611611611609856114c9565b8301826115b0565b50505b505050565b600082821c905092915050565b600061163760001984600802611619565b1980831691505092915050565b60006116508383611626565b9150826002028217905092915050565b61166982610fb9565b67ffffffffffffffff81111561168257611681610d75565b5b61168c8254611483565b6116978282856115d3565b600060209050601f8311600181146116ca57600084156116b8578287015190505b6116c28582611644565b86555061172a565b601f1984166116d8866114b4565b60005b82811015611700578489015182556001820191506020850194506020810190506116db565b8683101561171d5784890151611719601f891682611626565b8355505b6001600288020188555050505b505050505050565b7f4e487b7100000000000000000000000000000000000000000000000000000000600052601160045260246000fd5b600061176c82610f47565b915061177783610f47565b925082820190508082111561178f5761178e611732565b5b92915050565b7f6e6f207265636f72647300000000000000000000000000000000000000000000600082015250565b60006117cb600a83610fc4565b91506117d682611795565b602082019050919050565b600060208201905081810360008301526117fa816117be565b9050919050565b7f4e487b7100000000000000000000000000000000000000000000000000000000600052603260045260246000fd5b600061183b82610f47565b91507fffffffffffffffffffffffffffffffffffffffffffffffffffffffffffffffff820361186d5761186c611732565b5b60018201905091905056fea26469706673582212203777d6e52a44e3dfdba3871808fab43d9190f2a8660035b4bf39c5b2b020289d64736f6c63430008110033",
  "linkReferences": {},
  "deployedLinkReferences": {}
}